:0300F900010800FB
:0400E1007F147E000A
:1000E500EF4E600F7D027CEFDCFEDDFCEF1F70F054
:0300F5001E80ED7D
:0100F80022E5
:10008F0075A00120B1241200E130B1FD1200E1058D
:10009F0008E508C394084003E4F508AF087401A805
:1000AF0007088002C333D8FCF5A020B0D61200E1B8
:1000BF0030B0FD1200E1E5087005750807800215E4
:1000CF0008AF087401A807088002C333D8FCF5A055
:0200DF0080B1EE
:03000000020003F8
:0C000300787FE4F6D8FD75810802004A01
:10000F0002008FE493A3F8E493A34003F68001F278
:10001F0008DFF48029E493A3F85407240CC8C333F2
:10002F00C4540F4420C8834004F456800146F6DFC1
:10003F00E4800B01020408102040809000F9E47E58
:10004F00019360BCA3FF543F30E509541FFEE493B6
:10005F00A360010ECF54C025E060A840B8E493A37D
:10006F00FAE493A3F8E493A3C8C582C8CAC583CAA8
:10007F00F0A3C8C582C8CAC583CADFE9DEE780BE60
:0100FC000003
:00000001FF
